:100000000EC028C028C126C025C016C123C022C0EA
:1000100021C020C01FC01EC01DC03FC1C2C11124CD
:100020001FBECFE5D2E0DEBFCDBF10E0A0E6B0E05E
:10003000E0E2F7E002C005900D92A636B107D9F7CD
:1000400010E0A6E6B0E001C01D92A137B107E1F7CC
:1000500002D047C3D5CFCF93DF93CDB7DEB7279775
:100060000FB6F894DEBF0FBECDBFBB9AC39880EA2F
:1000700091E000D280936A0090936B00BA98B89890
:10008000BC9AC298C098C49838EB40EF50E260E444
:100090001DB8B998C19800C0B19907C0C19A00C0F5
:1000A000B19B05C0C19881E003C080E001C082E03F
:1000B00080936C00811105C08DB188618DB96EB9D6
:1000C0000EC0813039F41DB85ABF8BB780628BBF28
:1000D000A89A04C03DB94EB9BA98B8987894BB981C
:1000E000C39A88E028E083FF02C023FF07C0809105
:1000F0006C00823009F077C0759B9AC0C398BB9A98
:100100007599759A8091660090916700892B09F422
:10011000BFCF1DB81EB813BEF894809166009091B1
:1001200067009A838983E0916A00F0916B00819166
:100130008F831B8288B380618E8388B38F7E8D838B
:100140008D818C838F8187FF02C08E818C832E816D
:100150007C81AB81BD811F8189819A8128BBAB2FB6
:1001600078BB00C016FDA22FB8BB00C028BB7B2FF8
:10017000A8BB00C015FD722FB8BB00C028BBAB2FB9
:1001800078BB00C014FDA22FB8BB00C028BB7B2FDA
:10019000A8BB00C013FD722FB8BB00C028BBAB2F9B
:1001A00078BB00C012FDA22FB8BB00C028BB7B2FBC
:1001B000A8BB00C011FD722FB8BB00C028BBAB2F7D
:1001C00078BB00C010FDA22FB8BB019728BB7B2FC6
:1001D000A8BB119117FD722FB8BB01F610926700F2
:1001E0001092660055CF811123C0769B21C080916B
:1001F000660090916700E0916A00F0916B00E80F53
:10020000F91F8FB1808380916600909167008E39CD
:10021000914030F48091660090916700019602C091
:100220008EE991E090936700809366001FB8769AFC
:1002300096B3822F292F57CF1F920F920FB60F928E
:1002400011248F9382B78A5882BF8F910F900FBE6F
:100250000F901F9018951F920F920FB60F921124B6
:100260008F939F93B09912C082E482BF91E093BFB5
:1002700082E088BF89B7826089BF84E58DB988EF45
:100280008EB98BB78F7D8BBF909368009F918F91B4
:100290000F900FBE0F901F9018951F920F920FB6E0
:1002A0000F9211248F939F938EB110926900B8988A
:1002B00085FB882780F991E0892796B3882311F080
:1002C00090FDFBCF88EF8DB980EF8EB99F918F9114
:1002D0000F900FBE0F901F901895BA9A80916900E9
:1002E000823051F130F4882359F0813009F056C042
:1002F0001DC0843039F190F0853009F04FC028C01E
:100300008FB1882321F0982F9695953521F480FFA1
:100310003EC081E03DC088EA8DB918C08FB1882306
:1003200029F088EA8DB980E78EB908951FB882E078
:1003300080936900B89A0AC083E080936900B898F6
:100340001FB82AC085E080936900B89880E725C06F
:100350002FB18091660090916700E0916A00F09162
:100360006B00E80FF91F2083809166009091670071
:100370008E39914030F4809166009091670001962B
:1003800002C08EE991E0909367008093660084E05C
:10039000809369001FB8B89A8EE78EB9769ABA989A
:1003A00008951F920F920FB60F9211242F933F932F
:1003B0004F935F936F937F938F939F93AF93BF936D
:1003C000EF93FF9380916C00813009F03FC02FB113
:1003D0008091660090916700E0916A00F0916B0057
:1003E000E80FF91F822F90E0880F991F8A7A2695CF
:1003F0002575282B822F90E0880F991F880F991F51
:100400008C7C922F969596959373982B92959083CA
:1004100080916600909167008E39914030F4809110
:10042000660090916700019602C08EE991E090937A
:100430006700809366001FB813BE1DB880E28ABFB4
:100440008BB780628BBF1092680003C0823009F4C2
:1004500044DFFF91EF91BF91AF919F918F917F9179
:100460006F915F914F913F912F910F900FBE0F9021
:100470001F9018950F931F93CF93DF9382309105B0
:1004800010F482E090E0E0916F00F091700020E0C5
:1004900030E0C0E0D0E023C04081518148175907C7
:1004A000A8F04817590761F482819381209719F0C9
:1004B0009B838A832EC09093700080936F0029C025
:1004C0002115310529F04217530710F0A90102C088
:1004D000BE01DF0102811381EF019A01F80130971B
:1004E000D9F62115310509F1281B390B24303105C6
:1004F00090F412968D919C9113976115710521F0DE
:10050000FB019383828304C09093700080936F00FB
:10051000FD01329644C0FD01E20FF31F81939193D8
:10052000225031092D933C933AC020916D003091B7
:100530006E00232B41F420916200309163003093D0
:100540006E0020936D0020916000309161002115B4
:10055000310541F42DB73EB74091640050916500DC
:10056000241B350BE0916D00F0916E00E217F3074C
:10057000A0F42E1B3F0B2817390778F0AC014E5F13
:100580005F4F2417350748F04E0F5F1F50936E00E2
:1005900040936D008193919302C0E0E0F0E0CF01C1
:1005A000DF91CF911F910F910895EF92FF920F93DA
:1005B0001F93CF93DF93009709F48FC0DC0112974C
:1005C00013961C921E921297E0906F00F0907000AC
:1005D000E114F10489F42D913C911197280F391FF2
:1005E00080916D0090916E008217930789F5B0930A
:1005F0006E00A0936D0071C0E70120E030E001C003
:10060000EA01CA17DB0738F44A815B819E01411574
:100610005105B1F722C0BC0162507109FB01D383BF
:10062000C28300811181AC01400F511F4C175D073F
:1006300061F448815981400F511F4E5F5F4F5183D4
:1006400040834A815B81538342832115310529F41C
:10065000B0937000A0936F0040C0F901B383A283F0
:10066000E90169917991C60FD71FAC17BD0779F4DD
:10067000DC015E914E91460F571F4E5F5F4F5183D5
:10068000408312968D919C91139793838283A0E06F
:10069000B0E002C0D7017C01F7018281938100970D
:1006A000C9F7C701029620813181820F931F2091E3
:1006B0006D0030916E002817390779F4109729F4EE
:1006C0001092700010926F0004C013961C921E923C
:1006D0001297F0926E00E0926D00CDB7DEB7E6E0C3
:1006E0000EC0F8941BC02A88398848885F846E84BD
:1006F0007D848C849B84AA84B984C884DF80EE8046
:10070000FD800C811B81AA81B981CE0FD11D0FB64E
:10071000F894DEBF0FBECDBFED010895F894FFCF72
:0607200000007100200042
:00000001FF
