:100000000EC028C040C126C025C02EC123C022C0BA
:1000100021C020C01FC01EC01DC057C10AC211246C
:100020001FBECFE5D2E0DEBFCDBF10E0A0E6B0E05E
:10003000E2EAF7E002C005900D92A636B107D9F7C3
:1000400010E0A6E6B0E001C01D92A137B107E1F7CC
:1000500048D0A3C3D5CFCF93DF9300D000D00F9269
:10006000CDB7DEB7F894E0916B00F0916C00819110
:100070008D8388B380618C8388B38F7E8B838B81E3
:100080008A8388E089835C816B814D8139812A81F3
:100090008091660090916700A8E3B0E05C9347FD13
:1000A000252F3A952C93262F39F0441F00C00000CD
:1000B0006C93000000C0F2CF38E041916C930000D7
:1000C000019761F74D8339832A839093670080936A
:1000D00066000F900F900F900F900F90DF91CF91CF
:1000E0000895BB9AC39880EA91E028D280936B0070
:1000F00090936C00BA98B898BC9AC298C098C4986B
:100100001DB8B998C19800C0B19907C0C19A00C084
:10011000B19B05C0C19881E003C080E001C082E0CE
:1001200080936900809169008823F1F5109269003D
:10013000D8E1C0E4DDB9CEB9C39ABB9888E028E025
:1001400083FF12C023FD10C0BB9AC3988091660044
:1001500090916700009771F31DB81EB87CDF35E8F9
:100160003A95F1F70000E6CF769B1AC080916600C1
:100170009091670031E08F39930788F48091660091
:1001800090916700E0916B00F0916C00E80FF91F0F
:100190003FB1308301969093670080936600769A12
:1001A00096B3822F292FCCCF80916900823091F5B0
:1001B00080936900C39ABB98D8EBC0EFDDB9CEB984
:1001C000BA98B898789480E090E020E0759B03C0DE
:1001D00010926800759A93FD02C023FD03C0882326
:1001E000A9F001C081E090916800992379F4809191
:1001F000660090916700009741F01DB81EB8C09846
:10020000B89ABA9AC29827DFD9CF80E036B3922F36
:10021000232FDCCF80916900813009F071CF80936A
:100220006900C0E21DB8CABF8BB780628BBFA89AB5
:10023000109268007894C39ABB9898E088E093FF86
:100240000FC083FD0DC0BB9AC3988091660090914A
:100250006700009739F31DB81EB813BEFCDEE2CF6D
:1002600026B3982F822FEBCF1F920F920FB60F92CB
:1002700011248F9382B7855182BF8F910F900FBE4B
:100280000F901F9018951F920F920FB60F92112486
:100290008F939F93B09912C087E882BF91E093BF7C
:1002A00082E088BF89B7826089BF84E58DB987EF16
:1002B0008EB98BB78F7D8BBF909368009F918F9184
:1002C0000F900FBE0F901F901895BA9AC298B898C9
:1002D0001F920F920FB60F9211242F923F924F92BE
:1002E0005F926F927F928F929F92AF92BF92CF92C6
:1002F000DF92EF92FF920F931F932F933F934F93B1
:100300005F936F937F938F939F93AF93BF93CF939D
:10031000DF93EF93FF9310926A0088EF8DB980EF1F
:100320008EB981E080936800FF91EF91DF91CF91CA
:10033000BF91AF919F918F917F916F915F914F91FD
:100340003F912F911F910F91FF90EF90DF90CF90F1
:10035000BF90AF909F908F907F906F905F904F90E5
:100360003F902F900F900FBE0F901F90BA98189546
:1003700081E08093680080916A00823061F183306F
:1003800030F4882361F0813009F051C01EC0843000
:1003900041F1843090F0853009F049C028C08FB118
:1003A000882321F0982F9695953521F480FF38C049
:1003B00081E037C088EA8DB918C08FB1882329F051
:1003C00088EA8DB980E78EB908951FB882E08093DE
:1003D0006A00B89A0AC083E080936A00B8981FB890
:1003E00024C085E080936A00B89880E71FC02FB1D1
:1003F000809166009091670031E08F39930780F417
:100400008091660090916700E0916B00F0916C0024
:10041000E80FF91F20830196909367008093660090
:1004200084E080936A001FB8B89A8EE78EB9769AF6
:100430000895BA9AC2981F920F920FB60F92112484
:100440002F923F924F925F926F927F928F929F92E4
:10045000AF92BF92CF92DF92EF92FF920F931F93D2
:100460002F933F934F935F936F937F938F939F93BC
:10047000AF93BF93CF93DF93EF93FF938091690086
:10048000813099F52FB1809166009091670031E03D
:100490008F399307F8F48091660090916700E0919E
:1004A0006B00F0916C00E80FF91F322F330F3A7A8E
:1004B00026952575322B232F220F220F2C7C369563
:1004C00036953373232B22952083019690936700F2
:1004D000809366001FB813BE1DB880E28ABF8BB739
:1004E00080628BBF1092680005C0809169008230E5
:1004F00009F43EDFFF91EF91DF91CF91BF91AF9172
:100500009F918F917F916F915F914F913F912F912B
:100510001F910F91FF90EF90DF90CF90BF90AF9021
:100520009F908F907F906F905F904F903F902F9013
:100530000F900FBE0F901F90BA981895CF93DF932E
:10054000AC018230910510F442E050E0E0916F0080
:10055000F091700020E030E0A0E0B0E024C08081A5
:10056000918184179507D0F08417950771F48281E3
:100570009381109729F013969C938E9312972CC019
:100580009093700080936F0027C02115310519F0FA
:100590008217930718F49C01BD01EF0192818381BA
:1005A000DF01E92FF82F3097D1F621153105F9F049
:1005B000C901841B950B8430910580F48A819B814D
:1005C0006115710521F0FB019383828304C0909330
:1005D000700080936F00FE01329642C0FE01E80F6A
:1005E000F91F4193519302979983888339C0809171
:1005F0006D0090916E00009741F48091620090919F
:10060000630090936E0080936D00209160003091A4
:1006100061002115310541F42DB73EB7809164008A
:1006200090916500281B390BE0916D00F0916E00F0
:10063000E217F30798F42E1B3F0B2417350770F0D1
:10064000CA0102962817390748F08E0F9F1F909312
:100650006E0080936D004193519302C0E0E0F0E0A2
:10066000CF01DF91CF9108950F931F93CF93DF9325
:100670009C01009709F48CC0DC01129713961C9220
:100680001E92129760916F00709170006115710554
:1006900089F48D919C911197820F931F20916D0089
:1006A00030916E002817390769F5B0936E00A0935A
:1006B0006D006EC0FB0140E050E001C0FC01EA1794
:1006C000FB0730F482819381AF010097B9F71FC017
:1006D000E9012297FB83EA8308811981C901800F10
:1006E000911F8E179F0759F480819181800F911F70
:1006F000029699838883828193819B838A834115A3
:10070000510529F4B0937000A0936F0041C0FA0125
:10071000B383A283C191D191EC0FFD1FAE17BF0728
:1007200081F4F901929182918C0F9D1F0296DA015A
:1007300011969C938E938281938113969C938E93B2
:100740001297E0E0F0E002C0FB01BC01DB01129671
:100750008D919C9113970097B9F7CB0102962D913B
:100760003C911197820F931F20916D0030916E0084
:100770002817390769F4309729F410927000109205
:100780006F0002C01382128270936E0060936D003E
:10079000DF91CF911F910F910895F89400C0F894C4
:0207A000FFCF89
:0607A200000071002000C0
:00000001FF
