:100000000EC01DC086C11BC01AC074C118C017C065
:1000100016C015C014C013C012C011C019C11124DC
:100020001FBECFE5D2E0DEBFCDBF12E0A0E6B0E05C
:1000300001C01D92A330B107E1F7A1D08CC1E0CF80
:10004000CF93DF93CDB7DEB729970FB6F894DEBF15
:100050000FBECDBFF89480916000909161009A83AB
:100060008983809162008987B29B58C01D8288B3C2
:100070008260888788B38D7F8F838F818E83898507
:1000800087FF02C088858E8328853E814D815F81F0
:10009000698589819A81E3E6F0E028BB452F38BB6A
:1000A00000C066FD422F58BB00C028BB352F48BB9F
:1000B00000C065FD322F58BB00C028BB452F38BBA0
:1000C00000C064FD422F58BB00C028BB352F48BB81
:1000D00000C063FD322F58BB00C028BB452F38BB82
:1000E00000C062FD422F58BB00C028BB352F48BB63
:1000F00000C061FD322F58BB00C028BB452F38BB64
:1001000000C060FD422F58BB019728BB352F48BB6C
:10011000619167FD322F58BB01F628C088B3826019
:10012000888788B38D7F8F838F818C8388E08B83D2
:10013000288539854B815C816F8189819A81A3E60D
:10014000B0E0E8E3F0E0208337FD522F5083562FD4
:100150004A9531F0331F608300C000C000C0F3CF68
:100160006083000048E03D91019769F729960FB63A
:10017000F894DEBF0FBECDBFDF91CF910895CF932E
:10018000DF931F92CDB7DEB7BA98B898BA98B99AEC
:10019000C298C098C29AC19886E880BF8DE78EBD8C
:1001A0008FEF03C00000898181508983898181118B
:1001B000F9CF109262008FEF8093630085E5809302
:1001C0006400109261001092600022E012C008B634
:1001D00006FEFDCF88B7806488BF88B3822788BBBE
:1001E00080916000909161000196909361008093EE
:1001F00060008091600090916100069740F383E079
:1002000090E090936100809360001ADF109261008B
:100210001092600010E21DB81ABF8BB780628BBFCE
:10022000A89A78941FBC88B7806488BF08B606FE79
:10023000FDCF8091600090916100892B61F31DB822
:100240001EB813BEFDDE1092610010926000E3CF75
:100250001F920F920FB60F9211242F938F939F939B
:10026000EF93FF932FB1E0916000F0916100822F36
:1002700090E0880F991F8A7A26952575282B822F62
:1002800090E0880F991F880F991F8C7C922F96956C
:1002900096959373982B9295EE59FF4F908380918A
:1002A0006000909161008E39914030F4809160003F
:1002B00090916100019602C08EE991E090936100F7
:1002C000809360001FB813BE1DB880E28ABF8BB751
:1002D00080628BBF109202021FBC88B7806488BF07
:1002E000FF91EF919F918F912F910F900FBE0F90E3
:1002F0001F9018951F920F920FB60F9211248F9393
:1003000082B7805D82BF8F910F900FBE0F901F90BC
:1003100018951F920F920FB60F9211248F939F93EF
:10032000B09912C089EA82BF91E093BF82E088BF92
:1003300089B7826089BF84E58DB987EF8EB98BB7A5
:100340008F7D8BBF909302029F918F910F900FBE74
:0E0350000F901F901895F89400C0F894FFCFFE
:00000001FF
