:100000000EC028C020C126C025C00EC123C022C0FA
:1000100021C020C01FC01EC01DC037C1E1C11124B6
:100020001FBECFE5D2E0DEBFCDBF10E0A0E6B0E05E
:10003000E0EAF7E002C005900D92A636B107D9F7C5
:1000400010E0A6E6B0E001C01D92A137B107E1F7CC
:1000500002D087C3D5CFCF93DF93CDB7DEB7279735
:100060000FB6F894DEBF0FBECDBFBB9AC39880EA2F
:1000700091E040D280936A0090936B00BA98B89850
:10008000BC9AC298C098C49838EB40EF50E268E13F
:1000900070E41DB8B998C19800C0B19907C0C19A61
:1000A00000C0B19B05C0C19881E003C080E001C0E1
:1000B00082E080936C00811103C06DB97EB90EC0DF
:1000C000813039F41DB85ABF8BB780628BBFA89AB4
:1000D00004C03DB94EB9BA98B8987894BB98C39A01
:1000E00088E028E090916C00923029F083FF7AC07C
:1000F00023FD78C002C0759B93C0C398BB9A7599C5
:10010000759A8091660090916700892B09F4C1CFA0
:100110001DB81EB813BEF8948091660090916700D8
:100120009A838983E0916A00F0916B0081918F83BB
:100130001B8288B380618E8388B38F7E8D838D818F
:100140008C838F8187FF02C08E818C832E81AC814E
:10015000BB811D810F8189819A8128BBB12FA8BBEA
:1001600000C006FDB22F18BB00C028BBA12FB8BB32
:1001700000C005FDA22F18BB00C028BBB12FA8BB33
:1001800000C004FDB22F18BB00C028BBA12FB8BB14
:1001900000C003FDA22F18BB00C028BBB12FA8BB15
:1001A00000C002FDB22F18BB00C028BBA12FB8BBF6
:1001B00000C001FDA22F18BB00C028BBB12FA8BBF7
:1001C00000C000FDB22F18BB019728BBA12FB8BB00
:1001D000019107FDA22F18BB01F610926700109243
:1001E000660057CF91111CC0769B1AC080916600A3
:1001F000909167008F39914088F4809166009091CA
:100200006700E0916A00F0916B00E80FF91FAFB151
:10021000A083019690936700809366001FB8769A3A
:1002200096B3822F292F5ECF1F920F920FB60F9297
:1002300011248F9382B78A5882BF8F910F900FBE7F
:100240000F901F9018951F920F920FB60F921124C6
:100250008F939F93B09912C082E482BF91E093BFC5
:1002600082E088BF89B7826089BF84E58DB988EF55
:100270008EB98BB78F7D8BBF909368009F918F91C4
:100280000F900FBE0F901F901895BA9AC298B89809
:100290001F920F920FB60F9211242F923F924F92FE
:1002A0005F926F927F928F929F92AF92BF92CF9206
:1002B000DF92EF92FF920F931F932F933F934F93F1
:1002C0005F936F937F938F939F93AF93BF93CF93DE
:1002D000DF93EF93FF931092690088EF8DB980EF61
:1002E0008EB9FF91EF91DF91CF91BF91AF919F9127
:1002F0008F917F916F915F914F913F912F911F91BE
:100300000F91FF90EF90DF90CF90BF90AF909F90B4
:100310008F907F906F905F904F903F902F900F90B5
:100320000FBE0F901F90BA98189580916900823087
:1003300051F130F4882359F0813009F04FC01DC0CD
:10034000843039F190F0853009F048C028C08FB171
:10035000882321F0982F9695953521F480FF37C09A
:1003600081E036C088EA8DB918C08FB1882329F0A2
:1003700088EA8DB980E78EB908951FB882E080932E
:100380006900B89A0AC083E080936900B8981FB8E2
:1003900023C085E080936900B89880E71EC02FB124
:1003A00080916600909167008F39914080F4809130
:1003B000660090916700E0916A00F0916B00E80F91
:1003C000F91F20830196909367008093660084E074
:1003D000809369001FB8B89A8EE78EB9769A08950F
:1003E000BA9AC2981F920F920FB60F9211242F92B1
:1003F0003F924F925F926F927F928F929F92AF92B5
:10040000BF92CF92DF92EF92FF920F931F932F93A1
:100410003F934F935F936F937F938F939F93AF938C
:10042000BF93CF93DF93EF93FF9380916C00813064
:10043000D1F54FB180916600909167008F3921E02E
:10044000920730F52091660030916700E0916A00D4
:10045000F0916B00E20FF31F842F90E0880F991F3B
:100460008A7A46954575482B842F90E0880F991F0E
:10047000880F991F8C7C942F969596959373982B43
:10048000929590832F5F3F4F3093670020936600D3
:100490001FB813BE1DB880E28ABF8BB780628BBFC6
:1004A0001092680003C0823009F43FDFFF91EF91A2
:1004B000DF91CF91BF91AF919F918F917F916F917C
:1004C0005F914F913F912F911F910F91FF90EF906E
:1004D000DF90CF90BF90AF909F908F907F906F9064
:1004E0005F904F903F902F900F900FBE0F901F90F6
:1004F000BA9818950F931F93CF93DF93823091058D
:1005000010F482E090E0E0916F00F091700020E044
:1005100030E0C0E0D0E023C0408151814817590746
:10052000A8F04817590761F482819381209719F048
:100530009B838A832EC09093700080936F0029C0A4
:100540002115310529F04217530710F0A90102C007
:10055000BE01DF0102811381EF019A01F80130979A
:10056000D9F62115310509F1281B390B2430310545
:1005700090F412968D919C9113976115710521F05D
:10058000FB019383828304C09093700080936F007B
:10059000FD01329644C0FD01E20FF31F8193919358
:1005A000225031092D933C933AC020916D00309137
:1005B0006E00232B41F42091620030916300309350
:1005C0006E0020936D002091600030916100211534
:1005D000310541F42DB73EB740916400509165005C
:1005E000241B350BE0916D00F0916E00E217F307CC
:1005F000A0F42E1B3F0B2817390778F0AC014E5F93
:100600005F4F2417350748F04E0F5F1F50936E0061
:1006100040936D008193919302C0E0E0F0E0CF0140
:10062000DF91CF911F910F910895EF92FF920F9359
:100630001F93CF93DF93009709F48FC0DC011297CB
:1006400013961C921E921297E0906F00F09070002B
:10065000E114F10489F42D913C911197280F391F71
:1006600080916D0090916E008217930789F5B09389
:100670006E00A0936D0071C0E70120E030E001C082
:10068000EA01CA17DB0738F44A815B819E014115F4
:100690005105B1F722C0BC0162507109FB01D3833F
:1006A000C28300811181AC01400F511F4C175D07BF
:1006B00061F448815981400F511F4E5F5F4F518354
:1006C00040834A815B81538342832115310529F49C
:1006D000B0937000A0936F0040C0F901B383A28370
:1006E000E90169917991C60FD71FAC17BD0779F45D
:1006F000DC015E914E91460F571F4E5F5F4F518355
:10070000408312968D919C91139793838283A0E0EE
:10071000B0E002C0D7017C01F7018281938100978C
:10072000C9F7C701029620813181820F931F209162
:100730006D0030916E002817390779F4109729F46D
:100740001092700010926F0004C013961C921E92BB
:100750001297F0926E00E0926D00CDB7DEB7E6E042
:100760000EC0F8941BC02A88398848885F846E843C
:100770007D848C849B84AA84B984C884DF80EE80C5
:10078000FD800C811B81AA81B981CE0FD11D0FB6CE
:10079000F894DEBF0FBECDBFED010895F894FFCFF2
:0607A000000071002000C2
:00000001FF
