:100000000EC028C027C026C025C024C023C022C0DF
:1000100021C020C01FC01EC01DC0E3C006C11124E6
:100020001FBECFE5D2E0DEBFCDBF10E0A0E6B0E05E
:10003000ECECF5E002C005900D92A636B107D9F7B9
:1000400010E0A6E6B0E001C01D92AF36B107E1F7BF
:1000500002D09DC2D5CFCF93DF93CDB7DEB729971E
:100060000FB6F894DEBF0FBECDBF80EA91E058D145
:100070008093690090936A00BA98B898BB98BC9A2C
:10008000C298C098C39AC49886E880BF8DE78EBD99
:1000900028EB30EFA8E3B0E048E02DB93EB9BA98BC
:1000A000B89878941FBC88B7806488BF08B606FEED
:1000B000FDCF8091660090916700892B71F31DB888
:1000C0001EB813BEF894BB98C39A809166009091B5
:1000D00067009A838983E0916900F0916A008191B9
:1000E0008987B39B56C01D8288B38061888788B397
:1000F0008F7E8F838F818E83898587FF02C088855D
:100100008E8358856E817D811F81098589819A81C1
:1001100058BB712F68BB00C006FD752F18BB00C00F
:1001200058BB612F78BB00C005FD652F18BB00C010
:1001300058BB712F68BB00C004FD752F18BB00C0F1
:1001400058BB612F78BB00C003FD652F18BB00C0F2
:1001500058BB712F68BB00C002FD752F18BB00C0D3
:1001600058BB612F78BB00C001FD652F18BB00C0D4
:1001700058BB712F68BB00C000FD752F18BB0197DD
:1001800058BB612F78BB019107FD652F18BB01F6A5
:1001900023C088B38061888788B38F7E8F838F81E7
:1001A0008C834B83588569857B811C810F81898174
:1001B0009A815C9367FD152F1C93102F7A9531F06F
:1001C000661F0C9300C000C000C0F3CF0C9300006A
:1001D00078E06191019769F71092670010926600CC
:1001E0005CCF1F920F920FB60F9211248F939F93A3
:1001F0008EB110926800B89885FB882780F991E04D
:10020000892796B3882311F090FDFBCF88EF8DB935
:1002100080EF8EB91FBC88B7806488BF9F918F9193
:100220000F900FBE0F901F9018951F920F920FB650
:100230000F9211242F938F939F93EF93FF93BA9A6A
:100240001FBC88B7806488BF80916800823051F1FC
:1002500030F4882359F0813009F056C01DC0843035
:1002600039F190F0853009F04FC028C08FB1882354
:1002700021F0982F9695953521F480FF3EC081E0BE
:100280003DC088EA8DB918C08FB1882329F088EA6B
:100290008DB980E78EB93AC01FB882E080936800BC
:1002A000B89A0AC083E080936800B8981FB82AC043
:1002B00085E080936800B89880E725C02FB18091D1
:1002C000660090916700E0916900F0916A00E80F84
:1002D000F91F208380916600909167008E399140CC
:1002E00030F48091660090916700019602C08EE91B
:1002F00091E0909367008093660084E080936800AB
:100300001FB8B89A8EE78EB9769ABA98FF91EF9196
:100310009F918F912F910F900FBE0F901F90189566
:100320000F931F93CF93DF938230910510F482E0F7
:1003300090E0E0916D00F0916E0020E030E0C0E0D0
:10034000D0E023C04081518148175907A8F04817D1
:10035000590761F482819381209719F09B838A83E6
:100360002EC090936E0080936D0029C02115310539
:1003700029F04217530710F0A90102C0BE01DF01A6
:1003800002811381EF019A01F8013097D9F6211506
:10039000310509F1281B390B2430310590F41296F0
:1003A0008D919C9113976115710521F0FB01938349
:1003B000828304C090936E0080936D00FD0132969D
:1003C00044C0FD01E20FF31F819391932250310944
:1003D0002D933C933AC020916B0030916C00232BFD
:1003E00041F4209162003091630030936C002093BF
:1003F0006B0020916000309161002115310541F4BE
:100400002DB73EB74091640050916500241B350B19
:10041000E0916B00F0916C00E217F307A0F42E1B43
:100420003F0B2817390778F0AC014E5F5F4F241758
:10043000350748F04E0F5F1F50936C0040936B00E0
:100440008193919302C0E0E0F0E0CF01DF91CF9182
:100450001F910F910895EF92FF920F931F93CF93E7
:10046000DF93009709F48FC0DC01129713961C925A
:100470001E921297E0906D00F0906E00E114F1046E
:1004800089F42D913C911197280F391F80916B00B1
:1004900090916C008217930789F5B0936C00A0933C
:1004A0006B0071C0E70120E030E001C0EA01CA172B
:1004B000DB0738F44A815B819E0141155105B1F794
:1004C00022C0BC0162507109FB01D383C283008149
:1004D0001181AC01400F511F4C175D0761F4488139
:1004E0005981400F511F4E5F5F4F518340834A81B6
:1004F0005B81538342832115310529F4B0936E004B
:10050000A0936D0040C0F901B383A283E901699112
:100510007991C60FD71FAC17BD0779F4DC015E9146
:100520004E91460F571F4E5F5F4F51834083129687
:100530008D919C91139793838283A0E0B0E002C0D9
:10054000D7017C01F701828193810097C9F7C70128
:10055000029620813181820F931F20916B00309190
:100560006C002817390779F4109729F410926E005F
:1005700010926D0004C013961C921E921297F09276
:100580006C00E0926B00CDB7DEB7E6E00EC0F894E9
:100590001BC02A88398848885F846E847D848C8457
:1005A0009B84AA84B984C884DF80EE80FD800C819E
:1005B0001B81AA81B981CE0FD11D0FB6F894DEBF81
:0C05C0000FBECDBFED010895F894FFCFF1
:0605CC0000006F0020009A
:00000001FF
