:100000000EC01DC01CC01BC01AC019C018C017C02C
:1000100016C015C014C013C012C011C010C01124E6
:100020001FBECFE5D2E0DEBFCDBF12E0A0E6B0E05C
:1000300001C01D92A132B107E1F7A1D01DC1E0CFEF
:10004000CF93DF93CDB7DEB729970FB6F894DEBF15
:100050000FBECDBFF89480916000909161009A83AB
:100060008983809162008987B29B58C01D8288B3C2
:100070008260888788B38D7F8F838F818E83898507
:1000800087FF02C088858E8328853E814D815F81F0
:10009000698589819A81E3E6F0E028BB452F38BB6A
:1000A00000C066FD422F58BB00C028BB352F48BB9F
:1000B00000C065FD322F58BB00C028BB452F38BBA0
:1000C00000C064FD422F58BB00C028BB352F48BB81
:1000D00000C063FD322F58BB00C028BB452F38BB82
:1000E00000C062FD422F58BB00C028BB352F48BB63
:1000F00000C061FD322F58BB00C028BB452F38BB64
:1001000000C060FD422F58BB019728BB352F48BB6C
:10011000619167FD322F58BB01F628C088B3826019
:10012000888788B38D7F8F838F818C8388E08B83D2
:10013000288539854B815C816F8189819A81A3E60D
:10014000B0E0E8E3F0E0208337FD522F5083562FD4
:100150004A9531F0331F608300C000C000C0F3CF68
:100160006083000048E03D91019769F729960FB63A
:10017000F894DEBF0FBECDBFDF91CF910895CF932E
:10018000DF931F92CDB7DEB7BA98B898BA98B99AEC
:10019000C298C098C29AC1988FEF03C000008981AD
:1001A0008150898389818111F9CF1092620081E0A9
:1001B0008093630085E58093640083E090E09093F2
:1001C0006100809360003CDF10926100109260003B
:1001D0008AE880BF8DE78EBD10E408E08DB18861AC
:1001E0008DB91EB91FBC88B7806488BF08B606FEEB
:1001F0000FC08091600090916100892B79F31DB848
:100200001EB813BE1DDF1092610010926000E6CF91
:10021000769B26C01FBC88B7806488BFE0916000D1
:10022000F09161008FB1EE59FF4F808380916000A3
:10023000909161008E3B914030F4809160009091EC
:100240006100019602C08EEB91E090936100809373
:1002500060001FB8769ABB9A88B3802788BBC6CF48
:100260008091600090916100892B09F0BFCF8EB121
:100270008F7009F0BBCFB6CFF89400C0F894FFCFD1
:00000001FF
