:100000000EC028C06DC126C025C05BC123C022C060
:1000100021C020C01FC01EC01DC084C134C2112415
:100020001FBECFE5D2E0DEBFCDBF10E0A0E6B0E05E
:10003000EAE4F8E002C005900D92A636B107D9F7C0
:1000400010E0A6E6B0E001C01D92A137B107E1F7CC
:1000500076D0DCC3D5CFCF93DF9300D000D01F92F2
:10006000CDB7DEB7F894E0916B00F0916C00819110
:100070008D8388B380618C8388B38F7E8B83198254
:100080008B818A838D8187FF02C08C818A835C810A
:100090006B8180916600909167004A8139812D8142
:1000A00058BB362F48BB00C026FD352F68BB00C0AB
:1000B00058BB462F38BB00C025FD452F68BB00C08C
:1000C00058BB362F48BB00C024FD352F68BB00C08D
:1000D00058BB462F38BB00C023FD452F68BB00C06E
:1000E00058BB362F48BB00C022FD352F68BB00C06F
:1000F00058BB462F38BB00C021FD452F68BB00C050
:1001000058BB362F48BB00C020FD352F68BB019778
:1001100058BB462F38BB219127FD452F68BB01F600
:1001200090936700809366004A8339832D830F90F4
:100130000F900F900F900F90DF91CF910895BB9A81
:10014000C39880EA91E02BD280936B0090936C006F
:10015000BA98B898BC9AC298C098C4981DB8B99873
:10016000C19800C0B19907C0C19A00C0B19B05C039
:10017000C19881E003C080E001C082E08093690003
:100180008091690081113DC010926900C8E1D0E4FE
:10019000CDB9DEB9C39ABB9888E028E083FF12C0CE
:1001A00023FD10C0BB9AC3988091660090916700B0
:1001B000892B71F31DB81EB84EDF32E43A95F1F782
:1001C00000C0E6CF769B19C08091660090916700D1
:1001D0008F39914088F48091660090916700E0919A
:1001E0006B00F0916C00E80FF91F3FB1308301966E
:1001F0009093670080936600769A96B3822F292F9A
:10020000CDCF80916900823091F580936900C39AC7
:10021000BB98C8EBD0EFCDB9DEB9BA98B89878944E
:1002200080E090E020E0759B03C010926800759A12
:1002300093FD02C023FD03C08823A9F001C081E023
:100240009091680091110FC08091660090916700B5
:10025000892B41F01DB81EB8C098B89ABA9AC298B6
:10026000FADED9CF80E036B3922F232FDCCF8091F6
:100270006900813009F072CF80936900C0E21DB837
:10028000CABF8BB780628BBFA89A1092680078941F
:10029000C39ABB9898E088E093FF0FC083FD0DC020
:1002A000BB9AC3988091660090916700892B39F3BF
:1002B0001DB81EB813BECFDEE2CF26B3982F822F13
:1002C000EBCF1F920F920FB60F9211248F9382B72C
:1002D0008A5882BF8F910F900FBE0F901F90189574
:1002E0001F920F920FB60F9211248F939F93B09984
:1002F00012C082E482BF91E093BF82E088BF89B7D9
:10030000826089BF84E58DB988EF8EB98BB78F7D08
:100310008BBF909368009F918F910F900FBE0F90AD
:100320001F901895BA9AC298B8981F920F920FB65C
:100330000F9211242F923F924F925F926F927F9271
:100340008F929F92AF92BF92CF92DF92EF92FF92E5
:100350000F931F932F933F934F935F936F937F93CD
:100360008F939F93AF93BF93CF93DF93EF93FF93BD
:1003700010926A0088EF8DB980EF8EB981E080938A
:100380006800FF91EF91DF91CF91BF91AF919F9165
:100390008F917F916F915F914F913F912F911F911D
:1003A0000F91FF90EF90DF90CF90BF90AF909F9014
:1003B0008F907F906F905F904F903F902F900F9015
:1003C0000FBE0F901F90BA98189581E08093680037
:1003D00080916A00823051F130F4882359F08130E5
:1003E00009F04FC01DC0843039F190F0853009F01C
:1003F00048C028C08FB1882321F0982F9695953555
:1004000021F480FF37C081E036C088EA8DB918C07A
:100410008FB1882329F088EA8DB980E78EB90895D5
:100420001FB882E080936A00B89A0AC083E0809384
:100430006A00B8981FB823C085E080936A00B89816
:1004400080E71EC02FB180916600909167008F39C0
:10045000914080F48091660090916700E0916B007C
:10046000F0916C00E80FF91F2083019690936700CC
:100470008093660084E080936A001FB8B89A8EE784
:100480008EB9769A0895BA9AC2981F920F920FB6B3
:100490000F9211242F923F924F925F926F927F9210
:1004A0008F929F92AF92BF92CF92DF92EF92FF9284
:1004B0000F931F932F933F934F935F936F937F936C
:1004C0008F939F93AF93BF93CF93DF93EF93FF935C
:1004D000809169008130D1F54FB180916600909193
:1004E00067008F3921E0920730F520916600309146
:1004F0006700E0916B00F0916C00E20FF31F842F16
:1005000090E0880F991F8A7A46954575482B842F6D
:1005100090E0880F991F880F991F8C7C942F9695D7
:1005200096959373982B929590832F5F3F4F3093BE
:100530006700209366001FB813BE1DB880E28ABF13
:100540008BB780628BBF1092680005C080916900F4
:10055000823009F43ADFFF91EF91DF91CF91BF91A3
:10056000AF919F918F917F916F915F914F913F914B
:100570002F911F910F91FF90EF90DF90CF90BF9040
:10058000AF909F908F907F906F905F904F903F9033
:100590002F900F900FBE0F901F90BA9818950F9341
:1005A0001F93CF93DF938230910510F482E090E0A7
:1005B000E0916F00F091700020E030E0C0E0D0E00A
:1005C00023C04081518148175907A8F0481759079F
:1005D00061F482819381209719F09B838A832EC0D6
:1005E0009093700080936F0029C02115310529F088
:1005F0004217530710F0A90102C0BE01DF010281BA
:100600001381EF019A01F8013097D9F621153105D0
:1006100009F1281B390B2430310590F412968D9185
:100620009C9113976115710521F0FB0193838283DF
:1006300004C09093700080936F00FD01329644C017
:10064000FD01E20FF31F81939193225031092D9305
:100650003C933AC020916D0030916E00232B41F401
:10066000209162003091630030936E0020936D0002
:1006700020916000309161002115310541F42DB7C2
:100680003EB74091640050916500241B350BE0910A
:100690006D00F0916E00E217F307A0F42E1B3F0BE4
:1006A0002817390778F0AC014E5F5F4F24173507E4
:1006B00048F04E0F5F1F50936E0040936D00819382
:1006C000919302C0E0E0F0E0CF01DF91CF911F9164
:1006D0000F910895EF92FF920F931F93CF93DF93A3
:1006E000009709F48FC0DC01129713961C921E929A
:1006F0001297E0906F00F0907000E114F10489F41B
:100700002D913C911197280F391F80916D00909188
:100710006E008217930789F5B0936E00A0936D0069
:1007200071C0E70120E030E001C0EA01CA17DB0731
:1007300038F44A815B819E0141155105B1F722C011
:10074000BC0162507109FB01D383C2830081118116
:10075000AC01400F511F4C175D0761F4488159816E
:10076000400F511F4E5F5F4F518340834A815B8131
:10077000538342832115310529F4B0937000A0936F
:100780006F0040C0F901B383A283E90169917991B7
:10079000C60FD71FAC17BD0779F4DC015E914E91EF
:1007A000460F571F4E5F5F4F5183408312968D91C6
:1007B0009C91139793838283A0E0B0E002C0D7019D
:1007C0007C01F701828193810097C9F7C7010296E6
:1007D00020813181820F931F20916D0030916E0036
:1007E0002817390779F4109729F4109270001092A5
:1007F0006F0004C013961C921E921297F0926E0026
:10080000E0926D00CDB7DEB7E6E00EC0F8941BC0F5
:100810002A88398848885F846E847D848C849B8490
:10082000AA84B984C884DF80EE80FD800C811B819E
:10083000AA81B981CE0FD11D0FB6F894DEBF0FBECD
:0A084000CDBFED010895F894FFCF3D
:06084A0000007100200017
:00000001FF
